{
  "contractName": "Pharma",
  "abi": [
    {
      "anonymous": false,
      "inputs": [
        {
          "indexed": false,
          "internalType": "uint256",
          "name": "medicineId",
          "type": "uint256"
        }
      ],
      "name": "medicineLaunched",
      "type": "event"
    },
    {
      "anonymous": false,
      "inputs": [
        {
          "indexed": false,
          "internalType": "uint256",
          "name": "organizationId",
          "type": "uint256"
        }
      ],
      "name": "organizationLaunched",
      "type": "event"
    },
    {
      "inputs": [
        {
          "internalType": "uint256",
          "name": "",
          "type": "uint256"
        }
      ],
      "name": "Medicines",
      "outputs": [
        {
          "internalType": "uint256",
          "name": "OrganizationId",
          "type": "uint256"
        },
        {
          "internalType": "uint256",
          "name": "id",
          "type": "uint256"
        },
        {
          "internalType": "string",
          "name": "name",
          "type": "string"
        },
        {
          "internalType": "uint256",
          "name": "manufacturingDate",
          "type": "uint256"
        },
        {
          "internalType": "uint256",
          "name": "expiryDate",
          "type": "uint256"
        }
      ],
      "stateMutability": "view",
      "type": "function",
      "constant": true
    },
    {
      "inputs": [
        {
          "internalType": "address",
          "name": "",
          "type": "address"
        }
      ],
      "name": "OrganizationOwners",
      "outputs": [
        {
          "internalType": "uint256",
          "name": "",
          "type": "uint256"
        }
      ],
      "stateMutability": "view",
      "type": "function",
      "constant": true
    },
    {
      "inputs": [
        {
          "internalType": "uint256",
          "name": "",
          "type": "uint256"
        }
      ],
      "name": "Organizations",
      "outputs": [
        {
          "internalType": "string",
          "name": "name",
          "type": "string"
        },
        {
          "internalType": "address",
          "name": "owner",
          "type": "address"
        }
      ],
      "stateMutability": "view",
      "type": "function",
      "constant": true
    },
    {
      "inputs": [],
      "name": "nextMedicineId",
      "outputs": [
        {
          "internalType": "uint256",
          "name": "",
          "type": "uint256"
        }
      ],
      "stateMutability": "view",
      "type": "function",
      "constant": true
    },
    {
      "inputs": [],
      "name": "nextOrganizationId",
      "outputs": [
        {
          "internalType": "uint256",
          "name": "",
          "type": "uint256"
        }
      ],
      "stateMutability": "view",
      "type": "function",
      "constant": true
    },
    {
      "inputs": [
        {
          "internalType": "string",
          "name": "name",
          "type": "string"
        }
      ],
      "name": "createOrganization",
      "outputs": [],
      "stateMutability": "nonpayable",
      "type": "function"
    },
    {
      "inputs": [
        {
          "internalType": "uint256",
          "name": "_organizationId",
          "type": "uint256"
        },
        {
          "internalType": "string",
          "name": "medicineName",
          "type": "string"
        },
        {
          "internalType": "uint256",
          "name": "expiryDate",
          "type": "uint256"
        },
        {
          "internalType": "string",
          "name": "location",
          "type": "string"
        },
        {
          "internalType": "int256",
          "name": "latitude",
          "type": "int256"
        },
        {
          "internalType": "int256",
          "name": "longitude",
          "type": "int256"
        }
      ],
      "name": "manufactureMedicine",
      "outputs": [],
      "stateMutability": "nonpayable",
      "type": "function"
    },
    {
      "inputs": [
        {
          "internalType": "uint256",
          "name": "medicineId",
          "type": "uint256"
        }
      ],
      "name": "getMedicineHistory",
      "outputs": [
        {
          "components": [
            {
              "internalType": "enum Pharma.Status",
              "name": "status",
              "type": "uint8"
            },
            {
              "internalType": "address",
              "name": "handler",
              "type": "address"
            },
            {
              "internalType": "string",
              "name": "locationName",
              "type": "string"
            },
            {
              "internalType": "int256",
              "name": "latitude",
              "type": "int256"
            },
            {
              "internalType": "int256",
              "name": "longitude",
              "type": "int256"
            },
            {
              "internalType": "uint256",
              "name": "date",
              "type": "uint256"
            }
          ],
          "internalType": "struct Pharma.Checkpoint[]",
          "name": "",
          "type": "tuple[]"
        }
      ],
      "stateMutability": "view",
      "type": "function",
      "constant": true
    },
    {
      "inputs": [
        {
          "internalType": "uint256",
          "name": "organizationId",
          "type": "uint256"
        }
      ],
      "name": "getMedicines",
      "outputs": [
        {
          "components": [
            {
              "internalType": "uint256",
              "name": "OrganizationId",
              "type": "uint256"
            },
            {
              "internalType": "uint256",
              "name": "id",
              "type": "uint256"
            },
            {
              "internalType": "string",
              "name": "name",
              "type": "string"
            },
            {
              "internalType": "uint256",
              "name": "manufacturingDate",
              "type": "uint256"
            },
            {
              "internalType": "uint256",
              "name": "expiryDate",
              "type": "uint256"
            },
            {
              "components": [
                {
                  "internalType": "enum Pharma.Status",
                  "name": "status",
                  "type": "uint8"
                },
                {
                  "internalType": "address",
                  "name": "handler",
                  "type": "address"
                },
                {
                  "internalType": "string",
                  "name": "locationName",
                  "type": "string"
                },
                {
                  "internalType": "int256",
                  "name": "latitude",
                  "type": "int256"
                },
                {
                  "internalType": "int256",
                  "name": "longitude",
                  "type": "int256"
                },
                {
                  "internalType": "uint256",
                  "name": "date",
                  "type": "uint256"
                }
              ],
              "internalType": "struct Pharma.Checkpoint[]",
              "name": "history",
              "type": "tuple[]"
            }
          ],
          "internalType": "struct Pharma.Medicine[]",
          "name": "",
          "type": "tuple[]"
        }
      ],
      "stateMutability": "view",
      "type": "function",
      "constant": true
    },
    {
      "inputs": [
        {
          "internalType": "uint256",
          "name": "_organizaitonId",
          "type": "uint256"
        },
        {
          "internalType": "address",
          "name": "newMember",
          "type": "address"
        }
      ],
      "name": "approveMembers",
      "outputs": [],
      "stateMutability": "nonpayable",
      "type": "function"
    },
    {
      "inputs": [
        {
          "internalType": "uint256",
          "name": "_organizaitonId",
          "type": "uint256"
        },
        {
          "internalType": "address",
          "name": "newMember",
          "type": "address"
        }
      ],
      "name": "disApproveMembers",
      "outputs": [],
      "stateMutability": "nonpayable",
      "type": "function"
    },
    {
      "inputs": [
        {
          "internalType": "uint256",
          "name": "medicineId",
          "type": "uint256"
        },
        {
          "internalType": "string",
          "name": "locationName",
          "type": "string"
        },
        {
          "internalType": "int256",
          "name": "latitude",
          "type": "int256"
        },
        {
          "internalType": "int256",
          "name": "longitude",
          "type": "int256"
        }
      ],
      "name": "addInTransitCheckpoint",
      "outputs": [],
      "stateMutability": "nonpayable",
      "type": "function"
    },
    {
      "inputs": [
        {
          "internalType": "uint256",
          "name": "medicineId",
          "type": "uint256"
        },
        {
          "internalType": "string",
          "name": "locationName",
          "type": "string"
        },
        {
          "internalType": "int256",
          "name": "latitude",
          "type": "int256"
        },
        {
          "internalType": "int256",
          "name": "longitude",
          "type": "int256"
        }
      ],
      "name": "addShippedCheckpoint",
      "outputs": [],
      "stateMutability": "nonpayable",
      "type": "function"
    },
    {
      "inputs": [
        {
          "internalType": "uint256",
          "name": "medicineId",
          "type": "uint256"
        },
        {
          "internalType": "string",
          "name": "locationName",
          "type": "string"
        },
        {
          "internalType": "int256",
          "name": "latitude",
          "type": "int256"
        },
        {
          "internalType": "int256",
          "name": "longitude",
          "type": "int256"
        }
      ],
      "name": "addSoldCheckpoint",
      "outputs": [],
      "stateMutability": "nonpayable",
      "type": "function"
    },
    {
      "inputs": [
        {
          "internalType": "uint256",
          "name": "medicineId",
          "type": "uint256"
        }
      ],
      "name": "getLatestStatus",
      "outputs": [
        {
          "internalType": "enum Pharma.Status",
          "name": "",
          "type": "uint8"
        }
      ],
      "stateMutability": "view",
      "type": "function",
      "constant": true
    },
    {
      "inputs": [
        {
          "internalType": "uint256",
          "name": "organizationId",
          "type": "uint256"
        },
        {
          "internalType": "address",
          "name": "member",
          "type": "address"
        }
      ],
      "name": "isMemberOfOrganization",
      "outputs": [
        {
          "internalType": "bool",
          "name": "",
          "type": "bool"
        }
      ],
      "stateMutability": "view",
      "type": "function",
      "constant": true
    },
    {
      "inputs": [],
      "name": "getMyOrganizationId",
      "outputs": [
        {
          "internalType": "int256",
          "name": "",
          "type": "int256"
        }
      ],
      "stateMutability": "view",
      "type": "function",
      "constant": true
    }
  ],
  "bytecode": "0x608060405234801561000f575f80fd5b50612ad98061001d5f395ff3fe608060405234801561000f575f80fd5b5060043610610107575f3560e01c8063b11f6442116100a0578063d2830de31161006f578063d2830de3146102c6578063dab5026d146102e4578063e08958b014610314578063e8e7748214610344578063ebac73171461036057610107565b8063b11f64421461022a578063b8251c681461025a578063c07720cc14610276578063c757fc2a1461029257610107565b8063627dc35e116100dc578063627dc35e146101a65780636427acca146101c2578063649b71af146101de57806393c9a005146101fa57610107565b80621045ad1461010b578062adb0f81461013c5780630719d48f1461015a5780635b73e7b31461018a575b5f80fd5b61012560048036038101906101209190611946565b61037e565b604051610133929190611a3a565b60405180910390f35b610144610442565b6040516101519190611a77565b60405180910390f35b610174600480360381019061016f9190611946565b610448565b6040516101819190611cc2565b60405180910390f35b6101a4600480360381019061019f9190611d0c565b6105f4565b005b6101c060048036038101906101bb9190611dd5565b610746565b005b6101dc60048036038101906101d79190611e59565b6108c0565b005b6101f860048036038101906101f39190611ea4565b6109d0565b005b610214600480360381019061020f9190611d0c565b610d5d565b6040516102219190611f88565b60405180910390f35b610244600480360381019061023f9190611fa1565b610e07565b6040516102519190611a77565b60405180910390f35b610274600480360381019061026f9190611dd5565b610e1c565b005b610290600480360381019061028b9190611dd5565b610f95565b005b6102ac60048036038101906102a79190611946565b61111c565b6040516102bd959493929190611fcc565b60405180910390f35b6102ce6111d4565b6040516102db9190611a77565b60405180910390f35b6102fe60048036038101906102f99190611946565b6111da565b60405161030b91906121ef565b60405180910390f35b61032e60048036038101906103299190611946565b611530565b60405161033b919061221e565b60405180910390f35b61035e60048036038101906103599190611d0c565b6115c1565b005b610368611712565b6040516103759190612246565b60405180910390f35b5f602052805f5260405f205f91509050805f01805461039c9061228c565b80601f01602080910402602001604051908101604052809291908181526020018280546103c89061228c565b80156104135780601f106103ea57610100808354040283529160200191610413565b820191905f5260205f20905b8154815290600101906020018083116103f657829003601f168201915b505050505090806001015f9054906101000a900473ffffffffffffffffffffffffffffffffffffffff16905082565b60035481565b606060025f8381526020019081526020015f20600501805480602002602001604051908101604052809291908181526020015f905b828210156105e9578382905f5260205f2090600502016040518060c00160405290815f82015f9054906101000a900460ff1660038111156104c1576104c0611ab9565b5b60038111156104d3576104d2611ab9565b5b81526020015f820160019054906101000a900473ffffffffffffffffffffffffffffffffffffffff1673ffffffffffffffffffffffffffffffffffffffff1673ffffffffffffffffffffffffffffffffffffffff16815260200160018201805461053c9061228c565b80601f01602080910402602001604051908101604052809291908181526020018280546105689061228c565b80156105b35780601f1061058a576101008083540402835291602001916105b3565b820191905f5260205f20905b81548152906001019060200180831161059657829003601f168201915b5050505050815260200160028201548152602001600382015481526020016004820154815250508152602001906001019061047d565b505050509050919050565b818060015411610639576040517f08c379a000000000000000000000000000000000000000000000000000000000815260040161063090612306565b60405180910390fd5b823373ffffffffffffffffffffffffffffffffffffffff165f808381526020019081526020015f206001015f9054906101000a900473ffffffffffffffffffffffffffffffffffffffff1673ffffffffffffffffffffffffffffffffffffffff16146106da576040517f08c379a00000000000000000000000000000000000000000000000000000000081526004016106d190612394565b60405180910390fd5b60015f808681526020019081526020015f206003015f8573ffffffffffffffffffffffffffffffffffffffff1673ffffffffffffffffffffffffffffffffffffffff1681526020019081526020015f205f6101000a81548160ff02191690831515021790555050505050565b84806003541161078b576040517f08c379a0000000000000000000000000000000000000000000000000000000008152600401610782906123fc565b60405180910390fd5b855f60025f8381526020019081526020015f205f01549050600115155f808381526020019081526020015f206003015f3373ffffffffffffffffffffffffffffffffffffffff1673ffffffffffffffffffffffffffffffffffffffff1681526020019081526020015f205f9054906101000a900460ff16151514610844576040517f08c379a000000000000000000000000000000000000000000000000000000000815260040161083b9061248a565b60405180910390fd5b5f61084e89611530565b60038111156108605761085f611ab9565b5b905060018111156108a6576040517f08c379a000000000000000000000000000000000000000000000000000000000815260040161089d906124f2565b60405180910390fd5b6108b58960028a8a8a8a611756565b505050505050505050565b81815f8060015481526020019081526020015f205f0191826108e39291906126e4565b50335f8060015481526020019081526020015f206001015f6101000a81548173ffffffffffffffffffffffffffffffffffffffff021916908373ffffffffffffffffffffffffffffffffffffffff16021790555060015460045f3373ffffffffffffffffffffffffffffffffffffffff1673ffffffffffffffffffffffffffffffffffffffff1681526020019081526020015f20819055507f51acb4d12bb0c0a56f85ccb4127a2b43bb01dd29b551a4cc1882fb3f137cb6826001546040516109ac9190611a77565b60405180910390a16001805f8282546109c591906127de565b925050819055505050565b878060015411610a15576040517f08c379a0000000000000000000000000000000000000000000000000000000008152600401610a0c90612306565b60405180910390fd5b883373ffffffffffffffffffffffffffffffffffffffff165f808381526020019081526020015f206001015f9054906101000a900473ffffffffffffffffffffffffffffffffffffffff1673ffffffffffffffffffffffffffffffffffffffff1614610ab6576040517f08c379a0000000000000000000000000000000000000000000000000000000008152600401610aad90612394565b60405180910390fd5b5f808b81526020019081526020015f20600201600354908060018154018082558091505060019003905f5260205f20015f90919091909150558960025f60035481526020019081526020015f205f018190555060035460025f60035481526020019081526020015f2060010181905550888860025f60035481526020019081526020015f206002019182610b4b9291906126e4565b504260025f60035481526020019081526020015f20600301819055508660025f60035481526020019081526020015f206004018190555060025f60035481526020019081526020015f206005016040518060c001604052805f6003811115610bb657610bb5611ab9565b5b81526020013373ffffffffffffffffffffffffffffffffffffffff16815260200188888080601f0160208091040260200160405190810160405280939291908181526020018383808284375f81840152601f19601f82011690508083019250505050505050815260200186815260200185815260200142815250908060018154018082558091505060019003905f5260205f2090600502015f909190919091505f820151815f015f6101000a81548160ff02191690836003811115610c7e57610c7d611ab9565b5b02179055506020820151815f0160016101000a81548173ffffffffffffffffffffffffffffffffffffffff021916908373ffffffffffffffffffffffffffffffffffffffff1602179055506040820151816001019081610cde9190612811565b50606082015181600201556080820151816003015560a0820151816004015550507fbfe13df2f6bd7b10c5c33fa9d44f3d1f2440dbb0f4930b2b2da8f9dd3d80b342600354604051610d309190611a77565b60405180910390a1600160035f828254610d4a91906127de565b9250508190555050505050505050505050565b5f828060015411610da3576040517f08c379a0000000000000000000000000000000000000000000000000000000008152600401610d9a90612306565b60405180910390fd5b5f808581526020019081526020015f206003015f8473ffffffffffffffffffffffffffffffffffffffff1673ffffffffffffffffffffffffffffffffffffffff1681526020019081526020015f205f9054906101000a900460ff1691505092915050565b6004602052805f5260405f205f915090505481565b848060035411610e61576040517f08c379a0000000000000000000000000000000000000000000000000000000008152600401610e58906123fc565b60405180910390fd5b855f60025f8381526020019081526020015f205f01549050600115155f808381526020019081526020015f206003015f3373ffffffffffffffffffffffffffffffffffffffff1673ffffffffffffffffffffffffffffffffffffffff1681526020019081526020015f205f9054906101000a900460ff16151514610f1a576040517f08c379a0000000000000000000000000000000000000000000000000000000008152600401610f119061248a565b60405180910390fd5b5f610f2489611530565b6003811115610f3657610f35611ab9565b5b905060028114610f7b576040517f08c379a0000000000000000000000000000000000000000000000000000000008152600401610f7290612950565b60405180910390fd5b610f8a8960038a8a8a8a611756565b505050505050505050565b848060035411610fda576040517f08c379a0000000000000000000000000000000000000000000000000000000008152600401610fd1906123fc565b60405180910390fd5b855f60025f8381526020019081526020015f205f01549050600115155f808381526020019081526020015f206003015f3373ffffffffffffffffffffffffffffffffffffffff1673ffffffffffffffffffffffffffffffffffffffff1681526020019081526020015f205f9054906101000a900460ff16151514611093576040517f08c379a000000000000000000000000000000000000000000000000000000000815260040161108a9061248a565b60405180910390fd5b5f61109d89611530565b60038111156110af576110ae611ab9565b5b90505f81141580156110c2575060018114155b15611102576040517f08c379a00000000000000000000000000000000000000000000000000000000081526004016110f9906129de565b60405180910390fd5b6111118960018a8a8a8a611756565b505050505050505050565b6002602052805f5260405f205f91509050805f0154908060010154908060020180546111479061228c565b80601f01602080910402602001604051908101604052809291908181526020018280546111739061228c565b80156111be5780601f10611195576101008083540402835291602001916111be565b820191905f5260205f20905b8154815290600101906020018083116111a157829003601f168201915b5050505050908060030154908060040154905085565b60015481565b60605f805f8481526020019081526020015f206002018054905090505f8167ffffffffffffffff8111156112115761121061251a565b5b60405190808252806020026020018201604052801561124a57816020015b6112376118d9565b81526020019060019003908161122f5790505b5090505f5b82811015611525575f805f8781526020019081526020015f20600201828154811061127d5761127c6129fc565b5b905f5260205f200154905060025f8281526020019081526020015f206040518060c00160405290815f8201548152602001600182015481526020016002820180546112c79061228c565b80601f01602080910402602001604051908101604052809291908181526020018280546112f39061228c565b801561133e5780601f106113155761010080835404028352916020019161133e565b820191905f5260205f20905b81548152906001019060200180831161132157829003601f168201915b50505050508152602001600382015481526020016004820154815260200160058201805480602002602001604051908101604052809291908181526020015f905b828210156114eb578382905f5260205f2090600502016040518060c00160405290815f82015f9054906101000a900460ff1660038111156113c3576113c2611ab9565b5b60038111156113d5576113d4611ab9565b5b81526020015f820160019054906101000a900473ffffffffffffffffffffffffffffffffffffffff1673ffffffffffffffffffffffffffffffffffffffff1673ffffffffffffffffffffffffffffffffffffffff16815260200160018201805461143e9061228c565b80601f016020809104026020016040519081016040528092919081815260200182805461146a9061228c565b80156114b55780601f1061148c576101008083540402835291602001916114b5565b820191905f5260205f20905b81548152906001019060200180831161149857829003601f168201915b5050505050815260200160028201548152602001600382015481526020016004820154815250508152602001906001019061137f565b5050505081525050838381518110611506576115056129fc565b5b602002602001018190525050808061151d90612a29565b91505061124f565b508092505050919050565b5f805f60025f8581526020019081526020015f206005018054905011156115b85760025f8481526020019081526020015f20600501600160025f8681526020019081526020015f20600501805490506115899190612a70565b8154811061159a576115996129fc565b5b905f5260205f2090600502015f015f9054906101000a900460ff1690505b80915050919050565b818060015411611606576040517f08c379a00000000000000000000000000000000000000000000000000000000081526004016115fd90612306565b60405180910390fd5b823373ffffffffffffffffffffffffffffffffffffffff165f808381526020019081526020015f206001015f9054906101000a900473ffffffffffffffffffffffffffffffffffffffff1673ffffffffffffffffffffffffffffffffffffffff16146116a7576040517f08c379a000000000000000000000000000000000000000000000000000000000815260040161169e90612394565b60405180910390fd5b5f805f8681526020019081526020015f206003015f8573ffffffffffffffffffffffffffffffffffffffff1673ffffffffffffffffffffffffffffffffffffffff1681526020019081526020015f205f6101000a81548160ff02191690831515021790555050505050565b5f60045f3373ffffffffffffffffffffffffffffffffffffffff1673ffffffffffffffffffffffffffffffffffffffff1681526020019081526020015f2054905090565b60025f8781526020019081526020015f206005016040518060c0016040528087600381111561178857611787611ab9565b5b81526020013373ffffffffffffffffffffffffffffffffffffffff16815260200186868080601f0160208091040260200160405190810160405280939291908181526020018383808284375f81840152601f19601f82011690508083019250505050505050815260200184815260200183815260200142815250908060018154018082558091505060019003905f5260205f2090600502015f909190919091505f820151815f015f6101000a81548160ff021916908360038111156118505761184f611ab9565b5b02179055506020820151815f0160016101000a81548173ffffffffffffffffffffffffffffffffffffffff021916908373ffffffffffffffffffffffffffffffffffffffff16021790555060408201518160010190816118b09190612811565b50606082015181600201556080820151816003015560a082015181600401555050505050505050565b6040518060c001604052805f81526020015f8152602001606081526020015f81526020015f8152602001606081525090565b5f80fd5b5f80fd5b5f819050919050565b61192581611913565b811461192f575f80fd5b50565b5f813590506119408161191c565b92915050565b5f6020828403121561195b5761195a61190b565b5b5f61196884828501611932565b91505092915050565b5f81519050919050565b5f82825260208201905092915050565b5f5b838110156119a857808201518184015260208101905061198d565b5f8484015250505050565b5f601f19601f8301169050919050565b5f6119cd82611971565b6119d7818561197b565b93506119e781856020860161198b565b6119f0816119b3565b840191505092915050565b5f73ffffffffffffffffffffffffffffffffffffffff82169050919050565b5f611a24826119fb565b9050919050565b611a3481611a1a565b82525050565b5f6040820190508181035f830152611a5281856119c3565b9050611a616020830184611a2b565b9392505050565b611a7181611913565b82525050565b5f602082019050611a8a5f830184611a68565b92915050565b5f81519050919050565b5f82825260208201905092915050565b5f819050602082019050919050565b7f4e487b71000000000000000000000000000000000000000000000000000000005f52602160045260245ffd5b60048110611af757611af6611ab9565b5b50565b5f819050611b0782611ae6565b919050565b5f611b1682611afa565b9050919050565b611b2681611b0c565b82525050565b611b3581611a1a565b82525050565b5f82825260208201905092915050565b5f611b5582611971565b611b5f8185611b3b565b9350611b6f81856020860161198b565b611b78816119b3565b840191505092915050565b5f819050919050565b611b9581611b83565b82525050565b611ba481611913565b82525050565b5f60c083015f830151611bbf5f860182611b1d565b506020830151611bd26020860182611b2c565b5060408301518482036040860152611bea8282611b4b565b9150506060830151611bff6060860182611b8c565b506080830151611c126080860182611b8c565b5060a0830151611c2560a0860182611b9b565b508091505092915050565b5f611c3b8383611baa565b905092915050565b5f602082019050919050565b5f611c5982611a90565b611c638185611a9a565b935083602082028501611c7585611aaa565b805f5b85811015611cb05784840389528151611c918582611c30565b9450611c9c83611c43565b925060208a01995050600181019050611c78565b50829750879550505050505092915050565b5f6020820190508181035f830152611cda8184611c4f565b905092915050565b611ceb81611a1a565b8114611cf5575f80fd5b50565b5f81359050611d0681611ce2565b92915050565b5f8060408385031215611d2257611d2161190b565b5b5f611d2f85828601611932565b9250506020611d4085828601611cf8565b9150509250929050565b5f80fd5b5f80fd5b5f80fd5b5f8083601f840112611d6b57611d6a611d4a565b5b8235905067ffffffffffffffff811115611d8857611d87611d4e565b5b602083019150836001820283011115611da457611da3611d52565b5b9250929050565b611db481611b83565b8114611dbe575f80fd5b50565b5f81359050611dcf81611dab565b92915050565b5f805f805f60808688031215611dee57611ded61190b565b5b5f611dfb88828901611932565b955050602086013567ffffffffffffffff811115611e1c57611e1b61190f565b5b611e2888828901611d56565b94509450506040611e3b88828901611dc1565b9250506060611e4c88828901611dc1565b9150509295509295909350565b5f8060208385031215611e6f57611e6e61190b565b5b5f83013567ffffffffffffffff811115611e8c57611e8b61190f565b5b611e9885828601611d56565b92509250509250929050565b5f805f805f805f8060c0898b031215611ec057611ebf61190b565b5b5f611ecd8b828c01611932565b985050602089013567ffffffffffffffff811115611eee57611eed61190f565b5b611efa8b828c01611d56565b97509750506040611f0d8b828c01611932565b955050606089013567ffffffffffffffff811115611f2e57611f2d61190f565b5b611f3a8b828c01611d56565b94509450506080611f4d8b828c01611dc1565b92505060a0611f5e8b828c01611dc1565b9150509295985092959890939650565b5f8115159050919050565b611f8281611f6e565b82525050565b5f602082019050611f9b5f830184611f79565b92915050565b5f60208284031215611fb657611fb561190b565b5b5f611fc384828501611cf8565b91505092915050565b5f60a082019050611fdf5f830188611a68565b611fec6020830187611a68565b8181036040830152611ffe81866119c3565b905061200d6060830185611a68565b61201a6080830184611a68565b9695505050505050565b5f81519050919050565b5f82825260208201905092915050565b5f819050602082019050919050565b5f82825260208201905092915050565b5f61206782611a90565b612071818561204d565b93508360208202850161208385611aaa565b805f5b858110156120be578484038952815161209f8582611c30565b94506120aa83611c43565b925060208a01995050600181019050612086565b50829750879550505050505092915050565b5f60c083015f8301516120e55f860182611b9b565b5060208301516120f86020860182611b9b565b50604083015184820360408601526121108282611b4b565b91505060608301516121256060860182611b9b565b5060808301516121386080860182611b9b565b5060a083015184820360a0860152612150828261205d565b9150508091505092915050565b5f61216883836120d0565b905092915050565b5f602082019050919050565b5f61218682612024565b612190818561202e565b9350836020820285016121a28561203e565b805f5b858110156121dd57848403895281516121be858261215d565b94506121c983612170565b925060208a019950506001810190506121a5565b50829750879550505050505092915050565b5f6020820190508181035f830152612207818461217c565b905092915050565b61221881611b0c565b82525050565b5f6020820190506122315f83018461220f565b92915050565b61224081611b83565b82525050565b5f6020820190506122595f830184612237565b92915050565b7f4e487b71000000000000000000000000000000000000000000000000000000005f52602260045260245ffd5b5f60028204905060018216806122a357607f821691505b6020821081036122b6576122b561225f565b5b50919050565b7f496e76616c6964204f7267616e697a6174696f6e2049640000000000000000005f82015250565b5f6122f060178361197b565b91506122fb826122bc565b602082019050919050565b5f6020820190508181035f83015261231d816122e4565b9050919050565b7f596f7520617265206e6f74204f776e6572206f66204f7267616e697a6174696f5f8201527f6e00000000000000000000000000000000000000000000000000000000000000602082015250565b5f61237e60218361197b565b915061238982612324565b604082019050919050565b5f6020820190508181035f8301526123ab81612372565b9050919050565b7f496e76616c6964206d65646963696e65204964000000000000000000000000005f82015250565b5f6123e660138361197b565b91506123f1826123b2565b602082019050919050565b5f6020820190508181035f830152612413816123da565b9050919050565b7f596f7520617265206e6f7420616e20617070726f766564206d656d626572206f5f8201527f662074686973204f7267616e697a6174696f6e2e000000000000000000000000602082015250565b5f61247460348361197b565b915061247f8261241a565b604082019050919050565b5f6020820190508181035f8301526124a181612468565b9050919050565b7f696e76616c69642049642c206974656d206e6f7420696e207472616e736974005f82015250565b5f6124dc601f8361197b565b91506124e7826124a8565b602082019050919050565b5f6020820190508181035f830152612509816124d0565b9050919050565b5f82905092915050565b7f4e487b71000000000000000000000000000000000000000000000000000000005f52604160045260245ffd5b5f819050815f5260205f209050919050565b5f6020601f8301049050919050565b5f82821b905092915050565b5f600883026125a37fffffffffffffffffffffffffffffffffffffffffffffffffffffffffffffffff82612568565b6125ad8683612568565b95508019841693508086168417925050509392505050565b5f819050919050565b5f6125e86125e36125de84611913565b6125c5565b611913565b9050919050565b5f819050919050565b612601836125ce565b61261561260d826125ef565b848454612574565b825550505050565b5f90565b61262961261d565b6126348184846125f8565b505050565b5b818110156126575761264c5f82612621565b60018101905061263a565b5050565b601f82111561269c5761266d81612547565b61267684612559565b81016020851015612685578190505b61269961269185612559565b830182612639565b50505b505050565b5f82821c905092915050565b5f6126bc5f19846008026126a1565b1980831691505092915050565b5f6126d483836126ad565b9150826002028217905092915050565b6126ee8383612510565b67ffffffffffffffff8111156127075761270661251a565b5b612711825461228c565b61271c82828561265b565b5f601f831160018114612749575f8415612737578287013590505b61274185826126c9565b8655506127a8565b601f19841661275786612547565b5f5b8281101561277e57848901358255600182019150602085019450602081019050612759565b8683101561279b5784890135612797601f8916826126ad565b8355505b6001600288020188555050505b50505050505050565b7f4e487b71000000000000000000000000000000000000000000000000000000005f52601160045260245ffd5b5f6127e882611913565b91506127f383611913565b925082820190508082111561280b5761280a6127b1565b5b92915050565b61281a82611971565b67ffffffffffffffff8111156128335761283261251a565b5b61283d825461228c565b61284882828561265b565b5f60209050601f831160018114612879575f8415612867578287015190505b61287185826126c9565b8655506128d8565b601f19841661288786612547565b5f5b828110156128ae57848901518255600182019150602085019450602081019050612889565b868310156128cb57848901516128c7601f8916826126ad565b8355505b6001600288020188555050505b505050505050565b7f696e76616c6964207374617475732049642c206974656d206e6f7420736869705f8201527f7065642079657400000000000000000000000000000000000000000000000000602082015250565b5f61293a60278361197b565b9150612945826128e0565b604082019050919050565b5f6020820190508181035f8301526129678161292e565b9050919050565b7f696e76616c69642049642c206974656d206e6f7420696e207472616e736974205f8201527f6f72206d616e7566616375726564207374617475730000000000000000000000602082015250565b5f6129c860358361197b565b91506129d38261296e565b604082019050919050565b5f6020820190508181035f8301526129f5816129bc565b9050919050565b7f4e487b71000000000000000000000000000000000000000000000000000000005f52603260045260245ffd5b5f612a3382611913565b91507fffffffffffffffffffffffffffffffffffffffffffffffffffffffffffffffff8203612a6557612a646127b1565b5b600182019050919050565b5f612a7a82611913565b9150612a8583611913565b9250828203905081811115612a9d57612a9c6127b1565b5b9291505056fea2646970667358221220f199bd4263e6489097e67d6f9ddf6004bcb1e2f30221898f2f1eb641c43cac7064736f6c63430008140033",
  "immutableReferences": {},
  "source": "// SPDX-License-Identifier: GPL-3.0\r\n\r\npragma solidity ^0.8.20;\r\n\r\ncontract Pharma {\r\n\r\n    struct Organization{\r\n        string name;\r\n        address owner;\r\n        uint[] medicines;\r\n        mapping(address => bool) approvedMembers;\r\n    }\r\n\r\n    struct Medicine{\r\n        uint OrganizationId;\r\n        uint id;\r\n        string name;\r\n        uint manufacturingDate;\r\n        uint expiryDate;\r\n        Checkpoint[] history;\r\n    }\r\n\r\n    struct Checkpoint{\r\n        Status status;\r\n        address handler;\r\n        string locationName;\r\n        int latitude;\r\n        int longitude;\r\n        uint date;\r\n    }\r\n\r\n        enum Status{\r\n        Manufactured,\r\n        InTransit,\r\n        Shipped,\r\n        Sold\r\n    }\r\n\r\n\r\n\r\n    mapping(uint => Organization) public  Organizations;\r\n    uint public nextOrganizationId;\r\n    mapping(uint=> Medicine) public Medicines;\r\n    uint public nextMedicineId;\r\n\r\n    mapping(address => uint) public OrganizationOwners;\r\n\r\n    modifier onlyOrganizationOwner(uint organizationId){\r\n        require(Organizations[organizationId].owner == msg.sender, \"You are not Owner of Organization\");\r\n        _;\r\n    }\r\n\r\n    modifier onlyApprovedMembers(uint medicineId){\r\n        uint organizationId = Medicines[medicineId].OrganizationId;\r\n        require(Organizations[organizationId].approvedMembers[msg.sender] == true, \"You are not an approved member of this Organization.\");\r\n        _;\r\n    }\r\n\r\n    modifier organizationExists(uint organizationId){\r\n        require(nextOrganizationId > organizationId, \"Invalid Organization Id\");\r\n        _;\r\n    }\r\n\r\n    modifier medicineExists(uint medicineId){\r\n        require(nextMedicineId > medicineId, \"Invalid medicine Id\");\r\n        _;\r\n    }\r\n\r\n    event medicineLaunched(uint medicineId);\r\n    event organizationLaunched(uint organizationId);\r\n\r\n    function createOrganization(string calldata name) external {\r\n        Organizations[nextOrganizationId].name = name;\r\n        Organizations[nextOrganizationId].owner = msg.sender;\r\n        OrganizationOwners[msg.sender] = (nextOrganizationId);\r\n        emit organizationLaunched(nextOrganizationId);\r\n        nextOrganizationId += 1;\r\n    }\r\n\r\n    function manufactureMedicine(uint _organizationId, string calldata medicineName, uint expiryDate, string calldata location, int latitude, int longitude) external organizationExists(_organizationId) onlyOrganizationOwner(_organizationId) {\r\n\r\n        Organizations[_organizationId].medicines.push(nextMedicineId);\r\n\r\n        Medicines[nextMedicineId].OrganizationId = _organizationId;\r\n        Medicines[nextMedicineId].id = nextMedicineId;\r\n        Medicines[nextMedicineId].name = medicineName;\r\n        Medicines[nextMedicineId].manufacturingDate = block.timestamp;\r\n        Medicines[nextMedicineId].expiryDate = expiryDate;\r\n\r\n        Medicines[nextMedicineId].history.push(Checkpoint({\r\n            status: Status.Manufactured,\r\n            handler: msg.sender,\r\n            locationName: location,\r\n            latitude: latitude,\r\n            longitude: longitude,\r\n            date: block.timestamp\r\n        }));\r\n        emit medicineLaunched(nextMedicineId);\r\n        nextMedicineId += 1;\r\n    }\r\n\r\n    function getMedicineHistory(uint medicineId) view external returns(Checkpoint[] memory){\r\n        return Medicines[medicineId].history;\r\n    }\r\n\r\n    function getMedicines(uint organizationId) view external returns(Medicine[] memory){\r\n        uint nrMedicines = Organizations[organizationId].medicines.length;\r\n        Medicine[] memory ReturnMedicines = new Medicine[](nrMedicines);\r\n\r\n        for (uint i = 0; i < nrMedicines; i++) \r\n        {\r\n            uint medIdx = Organizations[organizationId].medicines[i];\r\n            ReturnMedicines[i] = (Medicines[medIdx]);\r\n        }\r\n\r\n        return ReturnMedicines;\r\n    }\r\n\r\n    function approveMembers(uint _organizaitonId, address newMember) external organizationExists(_organizaitonId) onlyOrganizationOwner(_organizaitonId)  {\r\n        Organizations[_organizaitonId].approvedMembers[newMember] = true;\r\n    }\r\n\r\n    function disApproveMembers(uint _organizaitonId, address newMember) external organizationExists(_organizaitonId) onlyOrganizationOwner(_organizaitonId)  {\r\n        Organizations[_organizaitonId].approvedMembers[newMember] = false;\r\n    }\r\n\r\n    function addInTransitCheckpoint(uint medicineId, string calldata locationName, int latitude, int longitude) external medicineExists(medicineId) onlyApprovedMembers(medicineId) {\r\n        uint lastStatus = uint(getLatestStatus(medicineId));\r\n        if (lastStatus != 0 && lastStatus != 1){\r\n            revert(\"invalid Id, item not in transit or manufacured status\");\r\n        }\r\n        addCheckpointData(medicineId, Status.InTransit, locationName, latitude, longitude);\r\n    }\r\n\r\n    function addShippedCheckpoint(uint medicineId, string calldata locationName, int latitude, int longitude) external medicineExists(medicineId) onlyApprovedMembers(medicineId) {\r\n        uint lastStatus = uint(getLatestStatus(medicineId));\r\n        if (lastStatus > 1){\r\n            revert(\"invalid Id, item not in transit\");\r\n        }\r\n        addCheckpointData(medicineId, Status.Shipped, locationName, latitude, longitude);\r\n    }\r\n\r\n    function addSoldCheckpoint(uint medicineId, string calldata locationName, int latitude, int longitude) external medicineExists(medicineId) onlyApprovedMembers(medicineId) {\r\n        uint lastStatus = uint(getLatestStatus(medicineId));\r\n        if (lastStatus != 2){\r\n            revert(\"invalid status Id, item not shipped yet\");\r\n        }\r\n        addCheckpointData(medicineId, Status.Sold, locationName, latitude, longitude);\r\n    }\r\n    function addCheckpointData(uint medicineId, Status newStatus, string calldata locationName, int latitude, int longitude) internal{\r\n        Medicines[medicineId].history.push(Checkpoint({\r\n            status: newStatus,\r\n            handler: msg.sender,\r\n            locationName: locationName,\r\n            latitude: latitude,\r\n            longitude: longitude,\r\n            date: block.timestamp\r\n        }));\r\n    }\r\n\r\n    function getLatestStatus(uint medicineId) public view returns(Status){\r\n        Status lastStatus;\r\n        if (Medicines[medicineId].history.length > 0){\r\n            lastStatus = Medicines[medicineId].history[Medicines[medicineId].history.length - 1].status;\r\n        }\r\n        return lastStatus;\r\n    }\r\n\r\n    function isMemberOfOrganization(uint organizationId, address member) public view organizationExists(organizationId) returns(bool){\r\n        return Organizations[organizationId].approvedMembers[member];\r\n    }\r\n\r\n    function getMyOrganizationId() external view returns(int){\r\n        return int(OrganizationOwners[msg.sender]);\r\n    }\r\n\r\n}",
  "sourcePath": "E:\\WebArchieve\\Hackathon\\truffle\\contracts\\Pharma.sol",
  "compiler": {
    "name": "solc",
    "version": "0.8.20+commit.a1b79de6.Emscripten.clang"
  },
  "schemaVersion": "3.4.16",
  "updatedAt": "2024-09-26T07:16:31.667Z",
  "networkType": "ethereum",
  "devdoc": {
    "kind": "dev",
    "methods": {},
    "version": 1
  },
  "userdoc": {
    "kind": "user",
    "methods": {},
    "version": 1
  }
}